:100000000C9446000C9465000C9465000C946500FB
:100010000C9465000C9465000C9465000C946500CC
:100020000C9465000C9465000C9465000C946500BC
:100030000C9465000C9465000C9465000C946500AC
:100040000C9465000C9465000C9465000C9465009C
:100050000C9465000C9465000C9465000C9465008C
:100060000C9465000C9465000C9465000C9465007C
:100070000C9465000C9465000C9465000C9465006C
:100080000C9465000C9465000C94650011241FBE4F
:10009000CFEFD0E1DEBFCDBF11E0A0E0B1E0E6E000
:1000A000FCE000E00BBF02C007900D92A035B10745
:1000B000D9F712E0A0E5B1E001C01D92A835B10763
:1000C000E1F70E9413020C9401060C940000EF92D9
:1000D000FF920F931F93CF93DF937C018B014130ED
:1000E00041F4CB010897A0E0B0E04196A11DB11DFD
:1000F0000DC0423041F4CB010897A0E0B0E0069675
:10010000A11DB11D03C080E090E0DC0102301105AB
:10011000E8F0E801F701308120E0418150E0422B16
:10012000532B60E070E0840F951FA61FB71F329617
:100130002297C230D10578F70250104098012E7FE7
:100140002E5F3F4FE20EF31E017010700115110576
:1001500059F0F701308120E0442737FD4095542FB6
:10016000820F931FA41FB51F9D01442755272115FA
:1001700031054105510571F0A070B070820F931FD9
:10018000A41FB51F9D0144275527211531054105A1
:10019000510591F79C0120953095822F932FDF9187
:1001A000CF911F910F91FF90EF900895A62FB72F39
:1001B000E6E5F1E09F012C5F3F4F4D914193E2173F
:1001C000F307D9F7A82FB92FE0E5F1E0CF010696A4
:1001D0002D912193E817F907D9F70895FC016932A9
:1001E000E8F084858830E1F485858630D9F496A1DD
:1001F000809156019817C1F497A1809157019817E3
:10020000A9F490A580915801981791F481E021A557
:1002100090915901291769F080E0089580E00895D0
:1002200080E0089580E0089580E0089580E00895DA
:1002300080E00895FC016A32E8F084858830E1F4BA
:1002400085858823D9F4968D809156019817C1F43D
:10025000978D809157019817A9F490A1809158012A
:10026000981791F481E021A190915901291769F023
:1002700080E0089580E0089580E0089580E008958A
:1002800080E0089580E0089580E00895E82FF92F38
:10029000A0E5B1E0CD010696268121932D9125831D
:1002A000A817B907C9F70895CF93DF93EC01A6E526
:1002B000B1E0FC017A96CD010496208124832D9132
:1002C0002193A817B907C9F7188E198E80E48C8B73
:1002D0001D8A8E8BCE010E9664E170E040E00E9494
:1002E0006700988F898FDF91CF910895CF93DF9327
:1002F000EC010E9446011C8A82E08D8BA0E5B1E0F2
:10030000FE017696CD010696208122872D912193BC
:10031000A817B907C9F7A6E5B1E0FE017C96CD01A3
:100320000496208122872D912193A817B907C9F738
:100330008AE290E0BE010E94B803DF91CF91089558
:100340001F93CF93DF93EC01162F0E944601CE013D
:100350000E9454011AA28CA1883F18F08DA18F5FD2
:100360008DA38CA1885F8CA3812F90E0BE010E9499
:10037000B803DF91CF911F910895DF92EF92FF9222
:100380000F931F93CF93DF93EC01E62ED72E042F0C
:10039000F22E132F0E9446010D3D08F00CED188A35
:1003A000802F845E898BCE010E9454011CA3FDA284
:1003B0001AA3FBA21EA2802F885F8FA318A619A6DE
:1003C000002351F0AE2DBD2DFE01BA9680E09D9127
:1003D00091938F5F8017D8F310E0B801605F7F4F73
:1003E000CE014A9641E00E94670098A789A7C801FC
:1003F0008A96BE010E94B803DF91CF911F910F91A1
:10040000FF90EF90DF900895BC018CE491E043E011
:1004100050E00E94AE05282F392F81E021153105CB
:1004200009F080E008952F923F924F925F926F9271
:100430007F928F929F92AF92BF92CF92DF92EF9274
:10044000FF920F931F93DF93CF93CDB7DEB7A097A3
:100450000FB6F894DEBF0FBECDBFBE9A80E487B959
:10046000F89485B7806885BF0E94AB0582E491E06F
:1004700068E471E00E94D60078940AE511E00F2E3E
:10048000F1E7CF2EF1E0DF2EF02D0F2EFEE78F2EBD
:10049000F1E09F2EF02D0F2EFFE74F2EF1E05F2EA3
:1004A000F02D0F2EF1E82F2EF1E03F2EF02DA101BF
:1004B0004D5F5F4F58A34F8F3E010894611C711C24
:1004C0000F2EFEE0EF2EF02D0F2EFCE7AF2EF1E009
:1004D000BF2EF02D8AEF90E0B8010E94D804682F5B
:1004E000792F61157105B1F3F82EC8010E94EE0055
:1004F000882329F0C8016F2D0E947601EBCFC80137
:100500006F2D0E941A01882329F3F6018081813022
:1005100049F4F50180818830E9F6C8016F2D0E9409
:10052000A001D8CF8131B1F6F4018081843091F6F9
:10053000F2018081803B71F6F101F0808F8D98A1EE
:100540000E940402882371F474C02F5FF801E20F47
:10055000F11D92A59C3221F02817B8F30DC021E0BF
:100560002F5F0AC08F2D8850A9F0E5E8F1E0908157
:100570009C32A9F321E0F0CF223060F030E090E02F
:1005800003978217930734F0F801E20FF31F83A556
:100590008D3349F0F301A0E0B1E08E2D0D90019272
:1005A0008150E1F74EC0F801E20FF31F82A58336B8
:1005B000B9F5F801E20FF31F84A5803351F4C69812
:1005C000F301AEE0B1E08CE00D9001928150E1F7D3
:1005D00038C0813351F4C69AF301AAE1B1E08BE04F
:1005E0000D9001928150E1F72CC08233C9F4F7ECF1
:1005F000F6B93699FECF84B195B140E951E0849FB8
:100600009001859F300D949F300D1124832F869586
:10061000869590E0B3014AE050E00E94BC0511C00D
:10062000F301A5E2B1E08E2D0D9001928150E1F72A
:1006300008C0F301A3E3B1E08FE00D900192815077
:10064000E1F7F30101900020E9F73197AF01461976
:100650005709C801B30120EB34E00E94BD013ACF35
:1006600082B1836082B90895CF93DF93A0E0B3E2B3
:100670002C91322F30643C9330910123FC01319353
:1006800030910223EC013983EF01219680910323FD
:100690008183FE0131968091042389838091052313
:1006A00081838091062382832C93DF91CF910895DB
:1006B000CF93DF93A0E0B3E22C91322F30643C93D0
:1006C000FC01319130930123EC0189818093022355
:1006D000EF012196818180930323FE013196898168
:1006E0008093042381818093052382818093062354
:1006F0002C93DF91CF910895282F392F2C3331057A
:1007000010F42CE330E042E240930023E0E0F3E217
:10071000408142FDFDCF40E4409304231092082322
:100720004093092342E04093072380930A23909348
:100730000B23209305233093062382E1809300232B
:1007400008956115710561F0E82FF92F80E090E0C0
:10075000A0E1B3E221912C93019686179707D0F37D
:10076000089584E28093002380E480930723089512
:100770000F931F93CF93DF93EC018B010E947C03B7
:10078000C801BE010E94A1030E94B103DF91CF9175
:100790001F910F91089560930A2370930B2320916A
:1007A00056023091570220930823309309234AE0E0
:1007B000409300236115710561F0E82FF92F80E067
:1007C00090E0A0E1B3E24C91419301968617970720
:1007D000D0F382E2809300238091072386FD0BC033
:1007E00081E090E0E7E0F3E2408146FD04C001963D
:1007F00084319105C9F780E480930723620F731F4A
:10080000709357026093560280E66030780730F0AC
:1008100060507A417093570260935602089582E2C5
:10082000809300238091072386FD08C083E1E7E0E1
:10083000F3E2908196FD02C08150D9F780E4809365
:10084000072380915502809303230895CF93DF936C
:10085000E0E0F3E2808191E29083E3EFF1E0319711
:10086000F1F700C0000010920A2310920B2382FFC0
:1008700021C0E7E0F3E22081CDE0D3E282E088838B
:10088000A0E0B3E282E28C9396E49093032332E6F5
:100890003C9390838C9380E180831882822F8A70AE
:1008A00019F486E2809300238FEF80930723DF9172
:1008B000CF910895ADE0B3E282E08C93E0E0F3E203
:1008C00082E2808396E49093032322E62083C7E0AC
:1008D000D3E29883808380E188831C92E5CF809166
:1008E000072384FF02C00E94260408950E946F041B
:1008F000E0E0F3E282E680838091072392E2908336
:1009000020910323281709F44BC081E0809307232B
:10091000822F86548A3160F086E48093032392E626
:1009200090838093072382E2808320E030E03DC003
:1009300084E080930A2310920B23109208232093C3
:100940000923A0E0B3E28AE08C93E0E1F3E2808146
:1009500030814081508182E28C938091072386FD13
:1009600009C081E0E7E0F3E2908196FD03C08F5F6C
:100970008431D1F780E48093072330935502922F7E
:1009800080E00496909357028093560236543A3191
:1009900050F4352F20E0240F311D2450304005C085
:1009A00020E030E002C020E030E0822F932F089555
:1009B000EF92FF920F931F93CF93DF938C017B01F4
:1009C0000E947604EC01009771F00817190728F4CB
:1009D0000E940F04C0E0D0E006C0C701BE010E9423
:1009E000CB030E940F047E018C2F9F2DDF91CF91AE
:1009F0001F910F91FF90EF9008956F927F928F92C9
:100A00009F92AF92BF92CF92DF92EF92FF920F939D
:100A10001F93CF93DF930F2EF7E06F2EF3E27F2E1D
:100A2000F02DD3018C918C93E3EDF0E33197F1F746
:100A300000C00000E0E0F3E281EE8083C1E0D3E299
:100A400080EC888385E093E220E2DC012C9306E0D1
:100A500013E2D8011C92A5E0B9EF1197F1F700C09D
:100A6000000018820F2EF1E29F2EF02D9082A3EF4E
:100A7000B1E01197F1F700C000000F2EFEE0EF2E5D
:100A8000F3E2FF2EF02D0F2EF8E5AF2EF02DD7015B
:100A9000AC9210920A2310920B232CE120930C238A
:100AA00024E033E240E4D9014C930F2EFDE0CF2E39
:100AB000F3E2DF2EF02D42E0D6014C930F2EF6E448
:100AC000BF2EF02DB88243E053E2DA01BC9262E01F
:100AD00073E20F2EF0E68F2EF02DDB018C920F2E9D
:100AE000F1E68F2EF02D8082A3EFB1E01197F1F7A0
:100AF00000C00000D301BC9218820F2EF6E0BF2E7A
:100B0000F02DDB01BC9268E9DA016C9340EFD9016A
:100B10004C9321E1DC012C9383E2D8018C939082E9
:100B2000D701AC9282E280839FEFD3019C93209304
:100B30000F23D6011C928083DF91CF911F910F91DB
:100B4000FF90EF90DF90CF90BF90AF909F908F90ED
:100B50007F906F9008950E94FD040895FB01DC01D1
:100B60004150504030F08D910190801919F40020CF
:100B7000B9F7881B990B0895FB019F01E894423057
:100B8000C4F04532B4F44A3029F497FB1EF4909532
:100B900081959F4F642F77270E94ED05805D8A33F2
:100BA0000CF0895D8193CB010097A1F716F45DE20B
:100BB00051931082C9010C94DD05DC01FC01672F03
:100BC00071917723E1F7329704C07C916D93708324
:100BD0006291AE17BF07C8F30895AA1BBB1B51E172
:100BE00007C0AA1FBB1FA617B70710F0A61BB70B9D
:100BF000881F991F5A95A9F780959095BC01CD0142
:060C00000895F894FFCFF7
:100C06006572723D6E6F436F6D6D616E64004C452B
:100C160044204973204F666621004C4544204973A1
:100C2600204F6E21006572723D6E6F537563684387
:100C36006D64006572723D696E76616C69645F70A1
:100C46007700000698F01123C0A801826D6172003A
:00000001FF
